:1000000012C011C12BC02AC029C028C027C026C0D9
:10001000E0C225C023C022C021C020C01FC01EC016
:100020001DC01CC01BC011241FBECFE5D4E0DEBF25
:10003000CDBF10E0A0E6B0E0E2E1FEE002C0059036
:100040000D92AA37B107D9F720E0AAE7B0E001C0C6
:100050001D92A63AB207E1F79BD2D9C6D1CF1F9223
:100060000F920FB60F9211248F93809187008823EF
:1000700031F0809186008F5F8093860005C080916B
:1000800085008F5F8093850080918600803180F4A9
:1000900080918500893060F083B78E7F83BF12BE68
:1000A00010928400109283001092860010928500B6
:1000B0008F910F900FBE0F901F9018959C0180910B
:1000C0007E0090917F0081309105A1F11CF4009792
:1000D00049F09DC08230910509F451C0039709F49D
:1000E00072C095C0232B71F021E030E000908000B9
:1000F00002C0220F331F0A94E2F730917D00232BB8
:1001000020937D0020918000309181002F5F3F4F30
:10011000277033273093810020938000211531050B
:1001200009F080C081E090E090937F0080937E0092
:10013000C9010895232B71F481E090E000908000C4
:1001400002C0880F991F0A94E2F790917C00892BD6
:1001500080937C008091800090918100019687704F
:1001600099279093810080938000009709F052C0F6
:1001700022E030E030937F0020937E000895232B0F
:1001800071F081E090E00090800002C0880F991F1C
:100190000A94E2F790917B00892B80937B008091F9
:1001A000800090918100019687709927909381003B
:1001B00080938000009789F523E030E030937F0042
:1001C00020937E000895232B71F481E090E000904D
:1001D000800002C0880F991F0A94E2F790917A007C
:1001E000892B80937A008091800090918100019604
:1001F000877099279093810080938000892B81F4E8
:1002000010927F0010927E0081E090E0089580E0DF
:1002100090E0089580E090E0089580E090E00895F7
:1002200080E090E008951F920F920FB60F92112474
:100230002F933F934F935F936F937F938F939F93EE
:10024000AF93BF93EF93FF93829B03C010928700FD
:1002500055C012BE81E08093870080918400811197
:100260000BC083B7816083BF109286001092850017
:1002700081E08093840042C080918600813140F00B
:1002800090918500993020F081E08093830032C006
:1002900090918300992371F1882361F1843050F5A6
:1002A000809185009CEF980F943088F481E090E075
:1002B00005DF892BF9F083B78E7F83BF12BE1092C2
:1002C00083001092840081E08093820013C08150EB
:1002D000833080F480E090E0F1DE892B59F083B721
:1002E0008E7F83BF12BE109283001092840081E043
:1002F000809382001092860010928500FF91EF910A
:10030000BF91AF919F918F917F916F915F914F912D
:100310003F912F910F900FBE0F901F9018958091D5
:1003200082008823F1F01092820080917B0020915E
:100330007D0090917C00291307C090917A00891369
:1003400005C0882329F005C080E003C080E001C01B
:1003500080E010927D0010927B0010927C00109241
:100360007A00089525B3236025BB892B39F08FE4EB
:1003700093EC0197F1F700C0000006C087E893E115
:100380000197F1F700C0000085B38C7F85BB08950D
:1003900080E090E029C0FC01EE0FFF1FEE56FF4FFA
:1003A000208131812F3F3105F1F02B7F22BBFC01F1
:1003B000EE0FFF1FEE56FF4F208122FF04C025B332
:1003C000246025BB03C025B32B7F25BBFC01EE0FAA
:1003D000FF1FE659FF4F208128BB2BEF22BB25B31F
:1003E000246025BB18BA019688309105A4F20895BF
:1003F00096DF8823D9F1863461F420918E00309104
:100400008F002130310529F010928F0010928E005C
:100410000895853169F420918E0030918F00232B4F
:1004200039F081E090E090938F0080938E000895E2
:10043000833471F420918E0030918F002330310588
:1004400039F082E090E090938F0080938E000895C1
:10045000843461F480918E0090918F00029731F086
:1004600083E090E090938F0080938E00089567D38F
:1004700087709078992324F40197886F9F6F019675
:1004800090938D0080938C005AD387709078992335
:1004900024F40197886F9F6F019680938A00909350
:1004A0008B0060918C0070918D00FB01EE0FFF1F9F
:1004B000EE56FF4FA081B181AD014095509521E0EE
:1004C00030E0F90102C0EE0FFF1F8A95E2F7CF017D
:1004D0009A012E233F23232B51F680959095660F8A
:1004E000771FFB01EE56FF4F8A239B239183808366
:1004F000089510928F0010928E0083E090E0909308
:100500009100809390008CE090E0B0D190938900AE
:100510008093880040E050E01CC09A01220F331FF6
:10052000220F331FE0918800F0918900E20FF31F42
:100530000197841B950B918380832E5F3F4FE09141
:100540008800F0918900E20FF31F118210824F5F43
:100550005F4F809190009091910048175907ECF2FD
:10056000E2E9F0E08EEF90E09183808393838283D1
:10057000958384838FEF90E097838683918780872C
:1005800093878287958784879787868770DF08950A
:10059000B0DF8FEF87BB8BEF81BB87E084BB8BB76E
:1005A00080648BBF85B7816085BF89B7856089BF4F
:1005B00082E08EBD1DBC1CBC8FB780688FBFE8DE9B
:1005C00017DFFDCF8091880090918900E7D191DFFE
:1005D00008951F920F920FB60F921124EF92FF927F
:1005E0000F931F932F933F934F935F936F937F933B
:1005F0008F939F93AF93BF93CF93DF93EF93FF932B
:100600001EBC80918E0090918F0081309105A1F0E9
:100610001CF4892B39F030C082309105B9F0039772
:1006200001F12AC0E0918800F0918900C081D18158
:1006300021960281138124C0E0918800F091890005
:10064000C081D1812197028113811AC0E091880075
:10065000F0918900C081D181028113810F5F1F4F0A
:100660000FC0E0918800F0918900C081D1810281A2
:1006700013810150110904C000E010E0C0E0D0E097
:10068000C770DD270770112780918C0090918D0035
:10069000C817D90751F480918A0090918B000817F0
:1006A000190731F080E090E005C080E090E002C0E2
:1006B00081E090E0892BE1F0DADE609190007091AA
:1006C00091006F5F7F4F7093910060939000660F71
:1006D000771F660F771F80918800909189003ED226
:1006E000909389008093880080E090E03BDE28C0F2
:1006F000E0918800F09189008091900090919100A4
:100700000197880F991F880F991FDF01A80FB91F44
:100710002D913C910296E80FF91F81E090E0008056
:1007200002C0880F991F0A94E2F7F901EE0FFF1F2C
:10073000EE56FF4F20813181822B932B9183808352
:10074000409190005091910041505109E12CF12CC1
:1007500042C060918800709189009A01220F331F76
:10076000220F331FFB01E20FF31F41505109CA0151
:10077000880F991F880F991FDB01A80FB91F6D9172
:100780007C9171836083E0918800F0918900B901C8
:100790006E5F7F4FDF01A60FB71F0296E80FF91FAC
:1007A000808191818D939C938091880090918900A4
:1007B000FC01E20FF31F20813181C217D30759F4E6
:1007C000FC01E60FF71F808191810817190719F4C2
:1007D000EE24E394F12C141615060CF4BACFE09134
:1007E0008800F0918900D183C083E0918800F09166
:1007F000890013830283EF2831F480919000909157
:100800009100809729F481E090E0ACDDDBDE13C03D
:1008100081E090E002C0880F991F0A95E2F7809569
:100820009095CC0FDD1FCE56DF4F28813981822372
:1008300093239983888382E08EBD1DBC1CBCFF91ED
:10084000EF91DF91CF91BF91AF919F918F917F9168
:100850006F915F914F913F912F911F910F91FF9059
:10086000EF900F900FBE0F901F9018950F931F934E
:10087000CF93DF938230910510F482E090E0E09115
:10088000A400F091A50020E030E0A0E0B0E03097B7
:1008900019F1408151810281138148175907C8F02D
:1008A0008417950769F4109731F012960C931297FC
:1008B00013961C9327C00093A4001093A50022C098
:1008C0002115310519F04217530718F49A01BD019B
:1008D000EF01DF01F801DBCF21153105F9F0281B0D
:1008E000390B2430310580F48A819B8161157105B3
:1008F00021F0FB019383828304C09093A500809331
:10090000A400FE01329644C0FE01E20FF31F819362
:10091000919322503109398328833AC02091A20053
:100920003091A300232B41F42091620030916300A9
:100930003093A3002093A2002091600030916100C9
:100940002115310541F42DB73EB740916400509117
:100950006500241B350BE091A200F091A300E21783
:10096000F307A0F42E1B3F0B2817390778F0AC01D2
:100970004E5F5F4F2417350748F04E0F5F1F5093AF
:10098000A3004093A2008193919302C0E0E0F0E0C5
:10099000CF01DF91CF911F910F910895CF93DF93F6
:1009A000009709F481C0FC01329713821282A09152
:1009B000A400B091A500109781F420813181820FAD
:1009C000931F2091A2003091A3002817390751F5F9
:1009D000F093A300E093A20067C0ED0120E030E0B7
:1009E000CE17DF0740F44A815B819E014115510516
:1009F000F1F0EA01F5CFD383C28340815181840FA6
:100A0000951FC817D90759F488819981840F951FBC
:100A10000296918380838A819B81938382832115AF
:100A2000310529F4F093A500E093A4003DC0E9014D
:100A3000FB83EA8349915991C40FD51FEC17FD0739
:100A400061F480819181840F951F0296E901998359
:100A50008883828193819B838A83E0E0F0E0129611
:100A60008D919C911397009719F0FD01DC01F7CF50
:100A70008D919C9111979D012E5F3F4F820F931F87
:100A80002091A2003091A3002817390769F430970C
:100A900029F41092A5001092A40002C013821282C1
:100AA000B093A300A093A200DF91CF9108958F92FD
:100AB0009F92AF92BF92CF92DF92EF92FF92CF932D
:100AC000DF93EC01688179818A819B8161157105D1
:100AD0008105910521F464E279ED8BE597E02DE144
:100AE00033EF41E050E002D149015A019B01AC01D2
:100AF000A7EAB1E417D16B017C01ACEEB4EFA5011C
:100B000094011CD1DC01CB018C0D9D1DAE1DBF1DC0
:100B1000B7FF03C00197A109B04888839983AA83CE
:100B2000BB839F77DF91CF91FF90EF90DF90CF90C5
:100B3000BF90AF909F908F900895B9DF089586E69B
:100B400090E0B5DF0895A0E0B0E080936600909358
:100B50006700A0936800B09369000895A0E0B0E03A
:100B6000E3EBF5E0F3C0EC01009719F4CB017EDE76
:100B7000B0C0FC01E60FF71F9C0122503109E217BB
:100B8000F30708F4A4C0D9010D911C911197061721
:100B90001707A8F00530110508F497C0C80104979D
:100BA0008617970708F491C002501109061B170B0E
:100BB000019311936D937C93CF01F0DE86C05B01AE
:100BC000A01AB10A4C01800E911EA091A400B09110
:100BD000A500612C712CE12CF12C109709F446C072
:100BE0008D919C911197A815B905B1F56C0142E062
:100BF000C40ED11CCA14DB0478F14C018A189B087E
:100C0000640142E0C40ED11C1296BC901297139658
:100C1000AC91B5E0CB16D10440F0B282A3839182AF
:100C20008082D9016D937C9309C00E5F1F4F800FA6
:100C3000911FF90191838083EB2DFA2FE114F104C8
:100C400031F0D7011396FC93EE9312973EC0F093C8
:100C5000A500E093A40039C06816790608F43C01A9
:100C60007D0112960D90BC91A02DB7CF8091A2006E
:100C70009091A30088169906E1F466167706C8F4E9
:100C80008091600090916100009741F48DB79EB70C
:100C90004091640050916500841B950BE817F9079B
:100CA000B0F4F093A300E093A200F9017183608394
:100CB0000CC0CB01DBDD7C01009749F0A801BE012F
:100CC0000CD0CE016BDEC70104C0CE0102C080E0B3
:100CD00090E0CDB7DEB7EEE055C0FB01DC0102C00D
:100CE00001900D9241505040D8F70895052E97FB82
:100CF00016F400940FD057FD05D05BD007FC02D04E
:100D000046F408C050954095309521953F4F4F4F80
:100D10005F4F089590958095709561957F4F8F4FA7
:100D20009F4F089568D0A59F900DB49F900DA49FEC
:100D3000800D911D11240895B7FFF4CFF3DF821BBE
:100D4000930B08952F923F924F925F926F927F92F2
:100D50008F929F92AF92BF92CF92DF92EF92FF92CB
:100D60000F931F93CF93DF93CDB7DEB7CA1BDB0B77
:100D70000FB6F894DEBF0FBECDBF09942A8839881C
:100D800048885F846E847D848C849B84AA84B98423
:100D9000C884DF80EE80FD800C811B81AA81B9812F
:100DA000CE0FD11D0FB6F894DEBF0FBECDBFED0143
:100DB0000895A1E21A2EAA1BBB1BFD010DC0AA1F9C
:100DC000BB1FEE1FFF1FA217B307E407F50720F0B4
:100DD000A21BB30BE40BF50B661F771F881F991F2F
:100DE0001A9469F760957095809590959B01AC0178
:100DF000BD01CF010895A29FB001B39FC001A39F81
:100E000001D0B29F700D811D1124911D0895F89499
:020E1000FFCF12
:100E12000000A60020000100000001000200040002
:0A0E220008001000200040008000CE
:00000001FF
